:030000000201BB3F
:0C01BB00787FE4F6D8FD75810702014949
:1001720000C000F900A400B000990092008200F8CB
:10018200008000900088008300C600A10086008ED7
:10011800E025E02472F582E43401F583740193F557
:010128008056
:10012900E4FDFCC3ED9FEC9E5015E4FBFA0BBB000C
:0F013900010AEB64724A70F50DBD00010C80E401
:010148002294
:1001AB00758901758C4C758A1ED2A9D28CD2AF225F
:04000E00AB07AA068C
:100012007C037DE81200C3900000EFF07C037DE8D2
:10002200AF03AE021200C37E007F64CFCDCFCECC31
:10003200CE1200C3A3EFF07C007D64AF03AE0212C8
:1000420000C37E007F0ACFCDCFCECCCE1200C3A399
:10005200EFF0AE02AF037C007D0A1200C3A905D205
:10006200A4D2A5D2A6D2A7C2A7900000E025E02480
:1000720072F582E43401F583740193F5807F017E89
:10008200001201297580FFD2A7C2A69000011201B9
:10009200187580FFD2A6C2A59000021201187580C1
:1000A200FFD2A5C2A4AF01EF25E02472F582E434A9
:1000B20001F583740193F5807F011201297580FF98
:0100C200221B
:100149001201ABE4900003F0A3F0900003E0B414B3
:100159000CE4F0A3E004F0E0B46402E4F0900004DD
:09016900E0FF7E0012000E80E1AF
:03000B000201925D
:10019200C0E0C083C082758C4C758A1E900003E05B
:0901A20004F0D082D083D0E032D9
:1000C300BC000BBE0029EF8DF084FFADF022E4CC21
:1000D300F875F008EF2FFFEE33FEEC33FCEE9DECEA
:1000E300984005FCEE9DFE0FD5F0E9E4CEFD22ED30
:1000F300F8F5F0EE8420D21CFEADF075F008EF2F7A
:10010300FFED33FD4007985006D5F0F222C398FD6A
:050113000FD5F0EA2207
:00000001FF
