:030000000203E018
:0C03E000787FE4F6D8FD75810702027BEF
:1003CF00BABDCCABB5E7D7D3D3D0CFDEB9ABCBBEAD
:0103DF00001D
:1003AF00E4FDFCC3ED9FEC9E5015E4FBFA0BBB0084
:0F03BF00010AEB64724A70F50DBD00010C80E479
:0103CE00220C
:10027B009000007480F012021B120339D2A6758015
:10028B00FFC2A6D2A77580FFC2A7E4900000F09032
:10029B000000E0C3940850F2120339900000E0FD17
:1002AB007BFF7A0379CFE4FF1201147FE87E031200
:0B02BB0003AF900000E02402F080D4AC
:100003001680FC96E584FC0008C8494AC808080025
:1000130000807F024C807F80601F00003F4040785B
:1000230000BABD20202020202020FF2020202020D7
:1000330020200080804020100C1360030C1020400F
:10004300808000CCAB0000F888888888FF88888887
:1000530088F800000000001F080808087F888888C7
:10006300889F80F000B5E780828282828282E2A24A
:10007300928A8682808000000000000040807F001A
:1000830000000000000000D7D304040484E43C27EC
:1000930024242424E40404040004020100FF0909C5
:1000A300090949897F00000000D3D000FE225A8647
:1000B30000FE9292929292FE00000000FF04080755
:1000C30000FF4020030C1422414000CFDE0080409B
:1000D300201806800007182040800000000100203F
:1000E30070282621202024386000010100B9AB00CC
:1000F3001012929292929292121202FE000000004B
:1001030000003F101010103F0040807F000000CB24
:01011300BE2D
:04036500E0FF7E0037
:10036900C2B5C2B4E4FDC280EF30E704D281800295
:10037900C281D280EF25E0FFEE33FE0DEDB408E631
:02038900D2B5EB
:01038B00224F
:10038C00C2B5D2B4E4FDC280EF30E704D281800262
:10039C00C281D280EF25E0FFEE33FE0DEDB408E60E
:0203AC00D2B5C8
:0103AE00222C
:07030C001203697F057E006A
:10031300E4FDFCC3ED9FEE6480F8EC648098501517
:10032300E4FBFA0BBB00010AEB64014A70F50DBD57
:0503330000010C80DE5A
:0103380022A2
:10021B00C2B67FE87E03120313D2B67F147E0012A0
:10022B0003137FE212030C7F2C12030C7F2E12039D
:10023B000C7F2F12030C7F241203697F817E001227
:10024B000369900003E493FF7E001203697FA27E93
:10025B00001203697FC87E001203697FA07E001223
:10026B0003697F407E001203697FAF7E0002036942
:10033900E4FCEC24B0FFE433FE1203697F107E0075
:10034900120369E4FFFE120369E4FBE4FFFE1203F2
:0B0359008C0BEBB480F50CECB408D763
:010364002276
:08011400900001EFF0A3EDF0F3
:10011C00D3940740037F0022900001E0D3948040E9
:10012C00037F0022900002E024B0F012036512025B
:10013C00C67003020218900002120365900001E0E1
:10014C00FFC4540FFE900004F0EF540FA3F0EE2404
:10015C0010FFE433FE120369120365E4FC1202C6BD
:10016C00FF75F022ECA42424F582E5F03400F5832D
:10017C00E4936F60030202059000011202DFFF7529
:10018C00F022ECA42425F582E5F03400F583E49309
:10019C006F7066900003F0900003E0FFC394205052
:1001AC0051EF6410701E900002E02401FFE433FE56
:1001BC00120369900004E02410FFE433FE1203697B
:1001CC00A3120365900003E0FF75F022ECA4240455
:1001DC00F582E5F03400F583E5822FF582E4358372
:1001EC00F583E493FF7E0012038C900003E004F08F
:1001FC0080A5900001E02410F00CEC643260030246
:0E020C000169740229F9E43AFA02013A7F010D
:01021A0022C1
:1002C600BB010689828A83E0225002E722BBFE0236
:0902D600E32289828A83E4932269
:1002DF00BB010CE58229F582E5833AF583E02250D4
:1002EF0006E92582F8E622BBFE06E92582F8E2221E
:0D02FF00E58229F582E5833AF583E4932238
:00000001FF
