:03000000021014D7
:0C101400787FE4F6D8FD758107020F56C6
:040FB5007F887E13A0
:100FB900E4FDFCC3ED9FEC9E5015E4FBFA0BBB006E
:0F0FC900010AEB64724A70F50DBD00010C80E463
:010FD80022F6
:100F56009000057480F0120E2B120FFC7BFF7A08AE
:100F66007903120E8B120FB57BFF7A007903120EEE
:100F76008B120FB57BFF7A047903120E8B120FB515
:020F860080DA0F
:1000030000000000000000000000000000000000ED
:10001300000000000000000000008000000000005D
:1000230000000000000000000000000000000000CD
:1000330000000000000000000000000000000000BD
:1000430000000000000000000000000000000000AD
:10005300000000000000000000000000000000009D
:10006300000000000000000000000000000000008D
:10007300000000000000000000000000000000007D
:10008300000000000000000000000000C0E0F0F8E5
:10009300FCFCFEFE7E3F3F7FFFFFFFFF7F7F3F7F36
:1000A300FEFCFCFCF0F0C08000000000000000003B
:1000B3000000000000000000000080C0E0E0F0F05D
:1000C300F8F8F8F8F8F8F8F8F0F0E0C0800000006D
:1000D3000000000000000000000080C0E0E0F0F03D
:1000E300F8F8F8F8F8F8F8F0F0E0C0800000000045
:1000F30000000000000000000000000000000000FD
:10010300000000000000000000A0FCFFFFFFFFFF55
:10011300FFFFFFE18080888EE8FFFFE3C0848480D7
:10012300FFFFFFFFFFFFFFFFFCD000000000000008
:100133000000000080E0F8FCFEFFFFFFFFFFFF7FF1
:100143001F1F0F1F3F7FFFFFFFFFFFFFFFFEF0405B
:100153000000000080E0F8FCFEFFFFFFFFFFFF7FD1
:100163001F0F1F3F3FFFFFFFFFFFFFFFFEF040009A
:10017300000000000000000000000000000000007C
:1001830000000000008080E0FCFFFFFFFFFFFFF79F
:10019300F7E3F3F1E1C1C1C1C1C181C1C1C1C1E192
:1001A300F3E3F3F7FFFFFFFFFFFFFFC000000000D3
:1001B3000000A8FEFFFFFFFFFFFFFFFF5F07010037
:1001C30080E06020E0C060373F3F3F7FFFFFFF7F5D
:1001D3000000A8FEFFFFFFFFFFFFFFFF7F070100F7
:1001E300E06020E0C060673F3F7FFFFFFFFFFF004D
:1001F30000000000000000000000000000000000FC
:100203000080F0FCFCFFFFFFFF3F03030357FFFFEA
:10021300FFFFFFFFBF3F1F3F3F3F3F3F3F1F3F1FCB
:100223001F0F0F07070303071FFFFFFFFEFCF0006D
:10023300000001071F1F3F7F7F7FFFFFFEFCF8FCCD
:10024300FFFFF8FEFFF1E084020200000103030652
:10025300C02001071F1F3F7F7F7FFFFFFEFCF8FCCD
:10026300FFF8FCFFFBE48C8202000101030387C05B
:10027300200000000000000000000000000000005B
:10028300000F1F0F0F03071F7F7AE0800001070F86
:100293000F0F0F0F0200000000000000000000001D
:1002A30000000000000080C0701F07071F1F1F020F
:1002B30000000000606060606060606060606060BB
:1002C300606060606060606163626666666263610D
:1002D300606060606060606060606060606060601B
:1002E30060606060606061636366666663636160EB
:1002F30060606060606060606060606060600000BB
:10030300000000000000003C4A0041030306040C07
:10031300189810905080606020002000606040209A
:100323005058080C06430140064438000000000002
:1003330000000000041CFCE4E4FC1C0400C0E0A07A
:10034300A0E0C0000020E0E0602020002060E0A0EA
:10035300A0E060200000000000000000F0F80C8422
:100363008C800000C0E02020E0C00000C0E020201E
:10037300E0C00000C0E02024FCFC000000000000FE
:10038300000000000000000000000000000000006A
:10039300000000000000000000000000000000005A
:1003A300000000000000000000000000000000004A
:1003B300000000000000010707010000000307041C
:1003C3000406020000040707040400001010191FAC
:1003D3000701000000000000000000000103060404
:1003E30007000000030704040703000003070404D5
:1003F30007030000030704040707040000000000CC
:1004030000000000000000000000000000000000E9
:1004130000000000000000000000000000000000D9
:1004230000000000000000000000000000000000C9
:100433000000000000000080C0C0C08080000000F9
:1004430000000000000000008080C0C0C0E0E0E0C9
:1004530070301818080C040406060603030303018E
:100463000101010000000000000000000000000086
:10047300000000000000808080C0C0606030101861
:100483000000000000000000000000000000000069
:100493000000000000000000000000000000000059
:1004A30000000000000000000002040C1870F0E0DF
:1004B300E0E0E0E0E0E0E1FFFFF1E1E1C1C3C6FC21
:1004C300FC381C1C1E1E1F1F1F1F3F7FF9F1C0801D
:1004D3000000000000000000000000000000008099
:1004E3008080C0C0C0C0E0E0F0F0F0F8880C0606E1
:1004F300070707038383C1C1E060602020303060B9
:100503008000000000000000000000000000000068
:1005130000000000000000000000000000000000D8
:1005230000000000000000000000C0E0FCFFFFFF2F
:100533001F0F1FF5010100000C7CF24200000000B8
:1005430040000000804000000000040CA801075F89
:10055300FC40000000000008080C06060703030324
:100563000101010000000000000101010103060474
:10057300000006030301010000000000000000006A
:100583000F3F7EFCF8E0E080000000000000000068
:100593000000000000000000000000000000000058
:1005A3000000000000000000000000070F9F8F8084
:1005B3008000000100000000007E7FC18000000079
:1005C3000C0000000600000101000001C74000000C
:1005D3001F050000000000000000000000000000F4
:1005E3000000000000000000000000000000000008
:1005F300000000008080C0E0E0603030180848C090
:1006030000E0F0F0B17F7FFFFFFCF0C00000C060AE
:100613006070303838381C1C1C1C0E0E0E0E0E0E6B
:100623000E0C0E0C0E0E1E1E160303030101010118
:10063300010303030606060C3CFCFCDC8C8CC4E4BF
:10064300FA3E0E0C1818303030303030181C0601CA
:100653000000000000000000000000000000000097
:100663000000000000000000000000000000008007
:10067300F0F87E3F0F0703010000000000000000B8
:10068300007F7FFBF3F3F7FFFFFFFFFFFF96BCF84D
:10069300F0E0000000000000000000000000000087
:1006A30000000000000080808080808080C0C0C087
:1006B300C0C0C0E0E0E0E0E0F0E0F1F173777F7FFD
:1006C3007F7E7E7E3E7C3C3C38383838303070202C
:1006D3007060606060E0E0E0E0E0E0E0E0E0E0E087
:1006E300F0F0707838180C00000000000000FE7F66
:1006F3000F030000000000000000000000000000E5
:100703000000000404091B1BFFFFFFFFFFFF1F0F77
:1007130007070004040C0C0C0C0E0E0E0E0E0E0E2E
:100723000F0F0F0F0F0F0F0707070707030703032A
:1007330003030101010101010000000000000000AA
:1007430000000000000000000000000000000000A6
:100753000000000000000000010101031FFF8101F0
:10076300000000000000000000000000000117006E
:1007730000008000000000000000000000000000F6
:100783000000000000000000000F7FFFFFFFA0003B
:100793000000000000000000000000000000000056
:1007A3000000000000000000000000000000000046
:1007B3000000000000000000000000000000000036
:1007C3000000000000000000000000000000000026
:1007D3000000000000000000000000000000030E05
:1007E30018306060E0C040C0C0C0606030180E00C8
:1007F30080C0F1FF3E080000000000000000000080
:1008030000000000000000000000F8080888F8104D
:1008130000000000E0F80808F8F8000000000000FD
:1008230000000000000000000000000000000000C5
:1008330000000000000000000000000000000000B5
:1008430000000000000000000000000000000000A5
:100853000000000000000000000000000000000095
:100863000000000000000000000000000000000085
:100873000000F83808C8F80000000000000000007D
:10088300000000000000000080FF070080FF1F0041
:10089300000000F07F0000F8FF01000000000000EE
:1008A3000000000000000000000000000000000045
:1008B3000000000000000000000000000000000035
:1008C30080FC0404FC7C0000000000000000000029
:1008D3000000000000000000000000000000000015
:1008E3000000000000000000000000000000000005
:1008F30000FC1F00E0FF07000000000000000000F4
:100903000000000000000080FF0700C0FF0F000090
:100913000000F83F0000FC7F000000000080C040A2
:100923004040408080000000000080C0C0C0C08004
:1009330080C0404040C0800000000080C0C0C0C0F4
:100943007F0300FCFFC0C0C0C080000000000000A7
:100953000080C0404040C080000000000000000054
:100963000000808040404040C08000000000000044
:10097300FE0F00F0FF8380404040408000000000F5
:10098300000000000000C0FF0300000F0F0808086C
:10099300080C0F0000FE7F0000E0380E03C1E0608A
:1009A30060C0000007FEE00000C0FF03003C1F879B
:1009B300C16060C0000003FFF0003E6F6060E0E0D4
:1009C3000000E060606060703F03000080E0380E6C
:1009D30083C1602060C0800107FEE0000000E07872
:1009E3000C0781C06060C0800003FEF8000000FEB9
:1009F3000F00303F87C16020E0800001FFFC000052
:100A03000000000000E0FF0100F0F80808080808F3
:100A1300F8180000FE3F00000F0B88884F4360204A
:100A2300101F0700F0FF0100E0FF0100E0FC0F03CF
:100A3300000000FF0600F0FF0100000000E0FF01DE
:100A430000FF3F0000000000000080F80F01001EBF
:100A53001F111010101F0F0000FF1F00F81F01C00F
:100A6300FC1F03000000113F30303F1F0080FF07D1
:100A730000C0F81E07000000FF1F00E0FF07000092
:100A830000000000E0FF0100F8FF0100000000FE8D
:100A93000F0080FF1F00E0380E83C16020303098C4
:100AA300FC0000F8FF0100E0FF0100FE3F00000032
:100AB3000080FF0700F8FF0100000000F07F0080C6
:100AC300FF1F00000000000000C0FF0300F8F8084B
:100AD30008080808888888888E0F00FF0700E0FF51
:100AE3000300000000C0F03030F0E00080FF03009E
:100AF300F8FF0100000000FE0F00E0FF0700000008
:100B0300000000F07F0000F8FF0100000000FF0775
:100B13000080FF0F00FF0300007F634060301C076D
:100B23000100FCFF0000F07F0000FE3F000000001A
:100B3300C0FF0300FC7F000000000060FF00003FD7
:100B43007F40406020F07000001FFF00000F3F60F7
:100B53004040301C0700E07E0F0000FF0000033F11
:100B630070404060380F01E07C1F01C0FF0300FCB0
:100B7300FF0000000000FF0F00F0FF030000000073
:100B83000000387F6060783F00000000003F67602E
:100B9300603F0F00000F1C206040606030183E6013
:100BA30060607F3F00307F60607F1F000000002097
:100BB3003F61607E3F000000000000000F3860408E
:100BC300404060203E1F00000000030F38204040DB
:100BD300406030180E070100000000010F1820606C
:100BE30040406030381C07030000203F61607C3FB9
:100BF30000000000003F6760783F01000000000034
:100C03001680FC96E584FC0008C8494AC808080019
:100C130000807F024C807F80601F00003F4040784F
:100C230000BABD20202020202020FF2020202020CB
:100C330020200080804020100C1360030C10204003
:100C4300808000CCAB0000F888888888FF8888887B
:100C530088F800000000001F080808087F888888BB
:100C6300889F80F000B5E780828282828282E2A23E
:100C7300928A8682808000000000000040807F000E
:100C830000000000000000D7D304040484E43C27E0
:100C930024242424E40404040004020100FF0909B9
:100CA300090949897F00000000D3D000FE225A863B
:100CB30000FE9292929292FE00000000FF04080749
:100CC30000FF4020030C1422414000CFDE0080408F
:100CD3002018068000071820408000000001002033
:100CE30070282621202024386000010100B9AB00C0
:100CF3001012929292929292121202FE000000003F
:100D030000003F101010103F0040807F000000CB18
:010D1300BE21
:100F1F00EC24B0FFE433FE120F337F107E00120F6C
:040F2F0033E4FFFEAA
:100F3300C2B5C2B4E4FDC280EF30E704D2818002BF
:100F4300C281D280EF25E0FFEE33FE0DEDB408E65B
:020F5300D2B515
:010F55002279
:100FD900C2B5D2B4E4FDC280EF30E704D281800209
:100FE900C281D280EF25E0FFEE33FE0DEDB408E6B5
:020FF900D2B56F
:010FFB0022D3
:070F8800120F337F057E000C
:100F8F00E4FDFCC3ED9FEE6480F8EC64809850158F
:100F9F00E4FBFA0BBB00010AEB64014A70F50DBDCF
:050FAF0000010C80DED2
:010FB400221A
:100E2B00C2B67FE87E03120F8FD2B67F147E0012FC
:100E3B000F8F7FE2120F887F2C120F887F2E120FDD
:100E4B00887F2F120F887F24120F337F817E001231
:100E5B000F33900C03E493FF7E00120F337FA27EBF
:100E6B0000120F337FC87E00120F337FA07E00125B
:100E7B000F337F407E00120F337FAF7E00020F33A4
:100FFC00E4FC120F1FE4FBE4FFFE120FD90BEBB461
:07100C0080F50CECB408EBC9
:0110130022BA
:0B0E8B00900006EBF0A3EAF0A3E9F0F2
:100E9600E4FC120F1FE4900009F0900009E0FFC384
:100EA60094805029900006E0FBA3E0FAA3E0F975D0
:100EB600F080ECA42FF582E435F0F583120EF2FFF4
:100EC6007E00120FD9900009E004F080CD0CECB43E
:020ED60008C052
:010ED80022F7
:080D1400900000EFF0A3EDF0E8
:100D1C00D3940740037F0022900000E0D3948040DE
:100D2C00037F0022900001E024B0F0E0FF7E00126F
:100D3C000F33120ED97003020E28900001E0FF7ED3
:100D4C0000120F33900000E0FFC4540FFE9000031C
:100D5C00F0EF540FA3F0EE2410FFE433FE120F3328
:100D6C00E0FF7E00120F33E4FC120ED9FF75F02267
:100D7C00ECA42424F582E5F0340CF583E4936F6045
:100D8C0003020E15900001120EF2FF75F022ECA476
:100D9C002425F582E5F0340CF583E4936F706A90AA
:100DAC000002F0900002E0FFC394205055EF641055
:100DBC007022900001E02401FFE433FE120F339007
:100DCC000003E02410FFE433FE120F33A3E0FF7E98
:100DDC0000120F33900002E0FF75F022ECA4240403
:100DEC00F582E5F0340CF583E5822FF582E435834A
:100DFC00F583E493FF7E00120FD9900002E004F01B
:100E0C0080A1900000E02410F00CEC64326003022E
:0E0E1C000D75740229F9E43AFA020D3E7F01C9
:010E2A0022A5
:100ED900BB010689828A83E0225002E722BBFE0217
:090EE900E32289828A83E493224A
:100EF200BB010CE58229F582E5833AF583E02250B5
:100F020006E92582F8E622BBFE06E92582F8E222FE
:0D0F1200E58229F582E5833AF583E4932218
:00000001FF
