:030000000200C536
:0C00C500787FE4F6D8FD7581070200B7D3
:10008700E4FDFCC3ED9FEC9E5015E4FBFA0BBB00AF
:0F009700010AEB64724A70F50DBD00010C80E4A4
:0100A6002237
:1000A700758901758CFF758AD2D2A9D28CD2AF22FD
:10004B0020B4197F057E0012008730B4FD900000AC
:10005B00E004F0E0D3945040037450F020B71C7FC1
:10006B00057E0012008730B7FD900000E0D3941E90
:0C007B005003741EF0900000E014F0220E
:0E00B7001200A7900000741EF012004B80FB98
:03000B0002000EE2
:10000E00C0E0C083C082C0D075D000C007758CFF21
:10001E00758AD2900001E004F0E0D394644002E4CB
:10002E00F0900000E0FFA3E0C39F5004D284800252
:0D003E00C284D007D0D0D082D083D0E03271
:00000001FF
