:03000000020EF3FA
:0C0EF300787FE4F6D8FD758107020DD76A
:100E5500BBB6D3ADCAB9D3C3BABDCCABB5E7D7D34F
:100E6500B5A5C6ACBBFA0057656C636F6D652054BC
:0F0E75006F2035314D435520576F726C6421004B
:100EAD00E4FDFCC3ED9FEC9E5015E4FBFA0BBB007B
:0F0EBD00010AEB64F94A70F50DBD00010C80E4E9
:010ECC002203
:100DD70012060E7DFF7FFF120CD57BFF7A0E795529
:100DE700900007E4F0A3741FF074FFA3F0A3F07D55
:100DF700647C007F147E0012079A7BFF7A0E796C61
:100E070090000774F8F0A3E4F074FFA3F0A3F07D5B
:0C0E1700967C007F147E0012079A80FE7B
:090E84007CCC7F13120ED07F011B
:100E8D00E4FDFCC3ED9FEC9E5015E4FBFA0BBB009B
:0F0E9D00010AEB64F94A70F50DBD00010C80E409
:010EAC002223
:0F0EE4008F80C2B6D2B6AF058F80C2B6D2B6220B
:050F0B00C2B5020EE476
:070EFF00E0FCA3E0FDECFFA5
:050F0600D2B5020EE46B
:030ECD00E4FDFC45
:100ED000AB05AA04AD07AC06ECFF120F0BEAFFADA1
:040EE00003020F06F4
:100D310090001CEEF0A3EFF0A3ECF0A3EDF07D46E4
:100D4100E4FF120F0BAF0390001CA3E0FD120F068E
:100D51007D47E4FF120F0B900022120EFF7D48E445
:100D6100FF120F0B90001E120EFF7D20E4FF120FE9
:100D71000B90001C120EFF7D21E4FF120F0BA3123A
:090D81000EFF7D22E4FF020F0BBE
:10060E00D2B37F057E00120E8DC2B3120E8DD2B301
:10061E00D2B7D2B4D2B6120E8DC2B77D047C207F73
:10062E0011120ED07D007CCC7F13120ED07D007C7B
:10063E00267F15120ED07D2A7C257F14120ED07DBA
:10064E00337C007F12120ED07D04120E847D0612B2
:10065E000E847D4F120E847D4F7C677F13120ED059
:10066E007D037C207F11120E887D097C267F30123F
:10067E000ED07D2C7C247F31120ED07D237C1F7FEB
:10068E0032120ED07D257C247F33120ED07D267C37
:10069E00227F34120ED07D237C257F35120ED07D25
:1006AE001A7C1C7F36120ED07D1D7C137F37120EE6
:1006BE00D07D117C0B7F38120ED07D107C127F39CD
:1006CE00120ED07D157C137F3A120ED07D197C361A
:1006DE007F3B120ED07D007C0D7F3C120ED07D0D27
:1006EE007C007F3D120ED07D077C007F16120ED04F
:1006FE007D137C007F02120ED07D037C007F0312DF
:10070E000ED07D277C017F01120E887403FDFC7FC5
:10071E0008120ED07D0B7C007F0A120ED07D037C5A
:10072E00007F0B120ED07F0C120ECD7F41120ECD1C
:10073E00E4FDFC7F50120ED07D057C007F60120E12
:10074E00D07D0B7C007F70120ED0E4FDFC7F711209
:10075E000ED0E4FDFC7F78120ED0E4FDFC7F7A1201
:10076E000ED07D077C007F79120ED07D517C007FEC
:10077E0007120E887D537C007F07120ED0E4FDFC1D
:0C078E007F79120ED07D22E4FF020F0BD9
:070CD500900000EFF0A905FB
:100CDC009000227401F0A3743FF07BEF7A00E4FDE6
:100CEC00FCFFFE120D31E4900001F0A3F0E4FBFADE
:100CFC00900000E0FFAD01120F060BBB00010AEBE8
:100D0C0064F04A70EB900002E004F0700690000171
:100D1C00E004F0C3900002E09440900001E0648095
:040D2C00948140C9A5
:010D300022A0
:1008DF00900026ECF0A3EDF0900024EEF0A3EFF0E3
:1008EF00900029E02FFB900028E03EFAD3EB94F024
:1008FF00EA940040037F002290002AE0FEA3E0FF6D
:10090F00900026E0FCA3E0FD2FFFEC3EFED3EF941A
:10091F0040EE940140037F0022EB24FFFBEA34FFFB
:10092F00FA90002AE0FEA3E0FF900026E0F8A3E093
:10093F002FFFE83ECF24FFCF34FF900022F0A3EF2C
:10094F00F0900024E0FEA3E0FF120D3190002AE0AA
:10095F00FCA3E0FD900028E0FEA3E0FF120CA190A5
:10096F000031EEF0A3EFF0E490002FF0A3F0900031
:10097F0031E0FEA3E0FFC3900030E09F90002FE036
:10098F009E5040A3E025E0FD90002FE033FCED24C6
:10099F0001FFE43CFE90002CE0FBA3E0FAA3E0F99A
:1009AF008F828E83120C74FF8D828C83120C74FDD8
:1009BF00120F06900030E004F0700690002FE00454
:0509CF00F080AB7F0188
:0109D4002200
:100B9B00900035ECF0A3EDF0900033EEF0A3EFF006
:080BAB00900037EAF0A3EBF023
:100BB3002FFFEE3AFED3EF94F0EE940040037F0054
:100BC30022900039E0FEA3E0FF900035E0FCA3E0B3
:100BD300FD2FFFEC3EFED3EF9440EE940140037FE4
:100BE3000022900037E0FEA3E0FF900033E0FAA379
:100BF300E02FFFEA3ECF24FFFBEF34FFFA900039EA
:100C0300E0FEA3E0FF900035E0F8A3E02FFFE83E0D
:100C1300CF24FFCF34FF900022F0A3EFF0900033F6
:100C2300E0FEA3E0FF120D31900039E0FCA3E0FDEC
:100C3300900037E0FEA3E0FF120CA1AB07AA0690D9
:100C43000000C3E5829BE5839A500A7DFF7FFF1274
:070C53000F06A380ED7F01F5
:010C5A002277
:100E2300E4FDFC90000F75F00DED120CC9EC75F0AC
:100E33000DA42583F583E493FE64206010EEB507CB
:100E430005AF05AE04220DBD00010C80D6AE04AF84
:010E53000599
:010E5400227B
:1009D500900011ECF0A3EDF090000FEEF0A3EFF016
:1009E5002408FFE43EFED3EF94F0EE9400400302AA
:1009F5000AB8900012E0240CFF900011E03400FECC
:100A0500D3EF9440EE94014003020AB8AF03120EEF
:100A150023900018EEF0A3EFF090000FE0FAA3E0AA
:100A2500FBFFAE02C006C007A3E0FCA3E0FDEB247C
:100A350007FBE43AFA900011E0FEA3E0240BFFE483
:100A45003E900022F0A3EFF0D007D006120D31E45E
:100A5500FAE4FB900018E0FEA3E090000375F00DAA
:100A6500120CC9EE75F00DA42583F583E5822AF5F0
:100A750082E43583F583E493F582758300C37407B7
:100A85009BFF74017E00A807088005C333CE33CED3
:100A9500D8F9FFEE5583FEEF55824E6005900014A0
:100AA5008003900016120EFF0BEBB408A60AEA6449
:030AB5000C709E24
:010AB800221B
:100D8A00E4FFFE9004EE75F01AEF120CC9EE75F04E
:100D9A001AA42583F583E493FD6420602F120C5B6B
:100DAA00FCEDB50420900001120C74FD9004EF755F
:100DBA00F01AEF120CC9EE75F01AA42583F583E434
:0C0DCA0093B50501220FBF00010E80B799
:010DD60022FA
:100AB900900011ECF0A3EDF090000FEEF0A3EFF031
:100AC9002408FFE43EFED3EF94F0EE9400400302C5
:100AD9000B9A900012E0240CFF900011E03400FE04
:100AE900D3EF9440EE94014003020B9A120D8A90C1
:100AF900001AEEF0A3EFF090000FE0FAA3E0FBFF7D
:100B0900AE02C006C007A3E0FCA3E0FDEB240FFB87
:100B1900E43AFA900011E0FEA3E0240BFFE43E90D2
:100B29000022F0A3EFF0D007D006120D31E4FAE469
:100B3900FB90001AE0FEA3E09004D675F01A120C9F
:100B4900C9EE75F01AA42583F583E5822AF582E4B6
:100B59003583F583E493F582758300C374079BFF9E
:100B690074017E00A807088005C333CE33CED8F9B7
:100B7900FFEE5583FEEF55824E6005900016800307
:100B8900900018120EFF0BEBB408A60AEA6418705D
:010B99009EBD
:010B9A002238
:10079A00900004EBF0A3EAF0A3E9F0900000EEF079
:0307AA00A3EFF0CA
:1007AD0090000BEEF0A3EFF0AF05A3ECF0A3EFF08C
:1007BD00900004E0FBA3E0FAA3E0F9120C5B7003D8
:1007CD000208DEC39480400302085790000DE0FC40
:1007DD00A3E0FD120C5BFB900007E0FFA3E090008F
:1007ED0014CFF0A3EFF0900009E0FFA3E090001606
:1007FD00CFF0A3EFF090000BE0FEA3E0FF1209D5C0
:10080D0090000CE02408F090000BE03400F0A3E021
:10081D002408FF90000BE03400FEC3EF94F0EE943B
:10082D0000401D900000E0FFA3E090000BCFF0A36F
:10083D00EFF090000EE0240CF090000DE03400F08D
:10084D00900005E475F0010208D890000DE0FCA3BE
:10085D00E0FD900004E0FBA3E0FAA3E0F9A3E0FFC4
:10086D00A3E0900016CFF0A3EFF0900009E0FFA3F6
:10087D00E0900018CFF0A3EFF090000BE0FEA3E0A6
:10088D00FF120AB990000CE02410F090000BE03438
:10089D0000F0A3E02410FF90000BE03400FEC3EF46
:1008AD0094F0EE9400401D900000E0FFA3E0900056
:1008BD000BCFF0A3EFF090000EE0240CF090000DA4
:1008CD00E03400F0900005E475F002120CB302075D
:0108DD00BD5D
:0108DE0022F7
:10000300000010101010101000180000210012241E
:100013004800000000000000002200002424FE48E5
:1000230048FE484800002300103C54503018145434
:10003300781000240000E4A4A8F01E2A2A4E000031
:100043002500003048487EA494887700002600608D
:10005300204000000000000000002700020C0810F0
:10006300101010080806002800402010080808088F
:10007300102040002900000010927C7C92100000A8
:10008300002A0000101010FE1010100000002B00BA
:1000930000000000000000006020402C0000000071
:1000A300007F0000000000002D00000000000000A1
:1000B30000006000002E0001020604080810202042
:1000C30040002F00003C2442424242243C000030C6
:1000D3000000107010101010107C00003100003C64
:1000E3004242040810627E00003200003C42021CBF
:1000F3000202423C00003300000C142444443C043C
:100103000C00003400007E40407C0202423C0000B0
:100113003500001C24405C6242623C000036000053
:100123007E4408081010101000003700003C4242C3
:10013300342C42423C0000380000186442463A0224
:10014300243C0000390000000018000000001800E3
:10015300003A0000000000100000001010003B00F7
:10016300020418204020100C0200003C0000000094
:10017300FE0000FE000000003D00402018040204C1
:1001830008304000003E00003C4262020C080018A8
:1001930000003F00003C469AAAAABC403E00004033
:1001A300000010182824247C42E70000410000F8D6
:1001B300444478464242FC00004200003E428080B4
:1001C3008080423C0000430000F8444242424244E3
:1001D300F80000440000FC424878484042FC00001C
:1001E300450000FC424878484040E00000460000DB
:1001F3003C4480808E8444380000470000E742423C
:100203007E424242E700004800007C1010101010AC
:10021300107C00004900003E08080808080888F020
:10022300004A0000EE444870504844EE00004B0082
:1002330000E0404040404042FE00004C0000EE6CB5
:100243006C6C545454D600004D0000C76252524A9D
:100253004646E200004E00003C44828282824438DB
:1002630000004F0000FC42427C404040E000005050
:1002730000003844828282B24C380600510000FCF0
:1002830042427C484446E300005200003E4240386C
:100293000402427C0000530000FE92101010101064
:1002A300380000540000E74242424242423C000010
:1002B300550000E74244242C281810000056000083
:1002C300D69292929A6C64440000570000E7662429
:1002D30018182466E70000580000EE442838101070
:1002E300103800005900007E840810102042FC00E2
:1002F300005A001E10101010101010101E005B008A
:1003030040202010100808040402005C007808084C
:1003130008080808080878005D001C220000000097
:1003230000000000005E000000000000000000006C
:1003330000FF5F00200000000000000000000060DC
:1003430000000000003C423E423F0000610000C04C
:1003530040405C6242427C00006200000000003CBE
:100363006240423C00006300000602021E624242F9
:100373003F00006400000000003C427E403E00005D
:100383006500000F10107E1010107C000066000046
:100393000000003E4438407C423C670000C04040BF
:1003A3005C624242E70000680000300000701010F9
:1003B300107C00006900000C00001C040404040409
:1003C300786A0000C040404E587048EE00006B0051
:1003D30000701010101010107C00006C0000000062
:1003E30000FF494949ED00006D0000000000D86698
:1003F3004242E700006E00000000003C4242423CE3
:1004030000006F0000000000F84642427C40E070AC
:1004130000000000003E4242423E0207710000001D
:100423000000EE302020F800007200000000003EC3
:10043300403C427C00007300000010107C10101040
:100443000C0000740000000000C64242423F00005E
:10045300750000000000E746242810000076000025
:10046300000000D7929A6A44000077000000000061
:100473006E3C183C760000780000000000E746243C
:10048300181810E07900000000007E4418327E0046
:10049300007A0007040404080404040403007B082E
:1004A30008080808080808080808087C00701010E5
:1004B30010081010101060007D304C030000000085
:1004C30000000000007E00000000000000000000AB
:1004D3000000200200FA000BE08C2058405100215C
:1004E3000021005280528084400820BBB68400590A
:1004F300E011201120D12051205520592051604175
:10050300004100BFE0D3AD110011002FE021006FC7
:10051300E0A9202FE029002500220025802860CAB9
:10052300B900007FC0444044407FC0444044407F02
:10053300C044404440444081C0D3C3210078804F2D
:10054300E0680058004B80FA804A806A805AA04CC9
:10055300A09860BABD040004000400FFE004000A90
:10056300000A0012001100290044808060CCAB080F
:10057300000800FF8088808880FF8088808880FF53
:10058300808820082007E0B5E700003F80010002D3
:100593000004000400FFE004000400040004001C45
:1005A30000D7D3208011007FC044407FC044407FE8
:1005B300C00400FFE0040004000400B5A50100210D
:1005C30000210021003FE0200020003F80208040E8
:1005D3008040808080C6AC200027802480F4802463
:1005E3008074806C80A480248024A028A03060BB09
:1005F300FA000000000000000000000000000000FE
:0B0603000000000000000000002020AC
:100C5B00BB010689828A83E0225002E722BBFE0297
:090C6B00E32289828A83E49322CA
:100C7400BB010CE58229F582E5833AF583E0225035
:100C840006E92582F8E622BBFE06E92582F8E2227F
:0D0C9400E58229F582E5833AF583E4932299
:100CA100EF8DF0A4A8F0CF8CF0A428CE8DF0A42E67
:020CB100FE2221
:100CB300C5F0F8A3E028F0C5F0F8E58215827002CC
:060CC3001583E038F02269
:0C0CC900A42582F582E5F03583F5832236
:00000001FF
