:030000000200C536
:0C00C500787FE4F6D8FD75810702010C7D
:0D01D9004100000041000300420001000051
:10019300E4FDFCC3ED9FEC9E5015E4FBFA0BBB00A2
:0F01A300010AEB64724A70F50DBD00010C80E497
:0101B200222A
:0901F200D280D281D282D2832294
:10000E00900000E070030200C4900003E0B408000A
:10001E0040030200BF90002AF82828730200420213
:10002E00005202006202007202008202009202007E
:10003E00A20200B2C280D281D282D2839000037417
:10004E0001F0806DC280C281D282D283900003748F
:10005E0002F0805DD280C281D282D283900003747E
:10006E0003F0804DD280C281C282D283900003748D
:10007E0004F0803DD280D281C282D283900003747C
:10008E0005F0802DD280D281C282C283900003748B
:10009E0006F0801DD280D281D282C283900003747A
:1000AE0007F0800DC280D281D282C283E490000319
:0700BE00F0E4900000F022C5
:1001C900758901758CFC758A67D2A9D28CD2AF2248
:0B01E7001201C91201F212000E80FB91
:03000B000201519E
:10015100C0E0C0F0C083C082C0D075D000C000C074
:1001610006758CFC758A67900001E475F001120137
:10017100B3FEE5F064024E700A90000004F0A3E4BF
:10018100F0A3F0D006D000D0D0D082D083D0F0D070
:02019100E0325A
:1000D1000201E7E493A3F8E493A34003F68001F25D
:1000E10008DFF48029E493A3F85407240CC8C33330
:1000F100C4540F4420C8834004F456800146F6DFFF
:10010100E4800B01020408102040809001D9E47EB4
:10011100019360BCA3FF543F30E509541FFEE493F3
:10012100A360010ECF54C025E060A840B8E493A3BA
:10013100FAE493A3F8E493A3C8C582C8CAC583CAE5
:10014100F0A3C8C582C8CAC583CADFE9DEE780BE9D
:0101E6000018
:1001B300A3F8E0C5F025F0F0E582158270021583FF
:0601C300E0C838F0E8225C
:00000001FF
