:0400EF0041000000CC
:1000BF00E4FDFCC3ED9FEC9E5015E4FBFA0BBB0077
:0F00CF00010AEB64724A70F50DBD00010C80E46C
:0100DE0022FF
:1000DF00758901758CDC758A06D2A9D28CD2AF22B4
:050003001200DF80FE89
:03000B0002009A56
:10009A00C0E0C083C082C0D0758CDC758A0690002F
:1000AA0000E004F0E0B46404B290E4F0D0D0D0826E
:0500BA00D083D0E0320C
:0300000002000EED
:0C000E00787FE4F6D8FD758107020055EC
:10001A00020003E493A3F8E493A34003F68001F2F9
:10002A0008DFF48029E493A3F85407240CC8C333E7
:10003A00C4540F4420C8834004F456800146F6DFB6
:10004A00E4800B01020408102040809000EFE47E57
:10005A00019360BCA3FF543F30E509541FFEE493AB
:10006A00A360010ECF54C025E060A840B8E493A372
:10007A00FAE493A3F8E493A3C8C582C8CAC583CA9D
:10008A00F0A3C8C582C8CAC583CADFE9DEE780BE55
:0100F300000C
:00000001FF
