:030000000200F803
:0C00F800787FE4F6D8FD7581200200033B
:10008B0048616E74656368204D43550048656C6C20
:08009B006F20576F726C6400C6
:10004C00E4FDFCC3ED9FEC9E5015E4FBFA0BBB00EA
:0F005C00010AEB64724A70F50DBD00010C80E4DF
:01006B002272
:0D006C00C2B6C2B47F057E00120079D2B486
:10007900E4FDFCC3ED9FEC9E50070DBD00010C8013
:01008900F284
:01008A002253
:1000A300C2B5D2B6D2B47F017E00120079E58033A7
:0600B3009200C2B4A2009D
:0100B9002224
:1000BA00AB071200A340FBAF038F80C2B512006CDE
:0500CA00C2B402007940
:1000CF00AB071200A340FBAF038F80D2B512006CB9
:0500DF00C2B40200792B
:1000E4007F381200BA7F0F1200BA7F061200BA7F5F
:0400F400010200BA4B
:100003001200E47F647E0012004C7F911200BAE478
:10001300F9E990008B93FF1200CF09E9B40BF27F4B
:10002300D11200BAE4F9E990009793FF1200CF09C7
:10003300E9B40BF2E4F97F181200BA7F2C7E0112A7
:09004300004C09E9B410EF80FE45
:00000001FF
