:030000000200B843
:0C00B800787FE4F6D8FD7581200200FF7F
:1002CE0000C000F900A400B000990092008200F86E
:1002DE00008000900088008300C600A10086008E7A
:04037400410008003C
:10027000E025E024CEF582E43402F583740193F5A1
:0102800080FD
:10028100E4FDFCC3ED9FEC9E5015E4FBFA0BBB00B3
:0F029100010AEB64724A70F50DBD00010C80E4A8
:0102A000223B
:04000300AB07AA0697
:100007007C037DE81201A490000BEFF07C037DE8F0
:10001700AF03AE021201A47E007F64CFCDCFCECC5A
:10002700CE1201A4A3EFF07C007D64AF03AE0212F1
:1000370001A47E007F0ACFCDCFCECCCE1201A4A3E0
:10004700EFF0AE02AF037C007D0A1201A4A905D22E
:10005700A4D2A5D2A6D2A7C2A790000BE025E02480
:10006700CEF582E43402F583740193F5807F017E37
:10007700001202817580FFD2A7C2A690000C12025F
:10008700707580FFD2A6C2A590000D120270758010
:10009700FFD2A5C2A4AF01EF25E024CEF582E43458
:1000A70002F583740193F5807F011202817580FF49
:0100B7002226
:06036400D2A27F087E001A
:0A036A00EF1F70011E144E70F72201
:1002EE00120364C2A27F5A7E0012036A120364A232
:0E02FE00A292007F647E0012036AD2A2A200C8
:01030C0022CE
:10032C00E4FC7D08C2A2ECC313FCD2A230A20344AD
:0D033C0080FC7F047E0012036ADDE9AF043F
:010349002291
:02034A00AD07FD
:10034C007B08C2A2ED1392A27F057E0012036AD233
:07035C00A2EDC313FDDBEB72
:010363002277
:1002A100AC05AA071202EE7FCC12034A7F4E12035D
:1002B1004AAF0212034AAF0412034A7F7F12034A74
:0D02C1001202EE7FCC12034A7F4802034A6E
:10030D001202EE7F3312034AE4FB12032C74002B0E
:0E031D00F582E43400F583EFF00BEBB408EC4E
:01032B0022AF
:10023D00E4FFFE74002EF582E43400F583E0FDE466
:10024D00FCEF6D20E006EFC313FF8008EF6418C3C9
:10025D00134480FFEDC313FD0CECB408E40EEEB4B3
:02026D0008D1B6
:01026F00226C
:100144001202EE7FCC12034A7F4412034A1202EEDB
:100154007F5512034AE4FC74002CF582E43400F564
:1001640083E0FF12034A0CECB408EC7FBE12034A8E
:1001740012032C90000BEFF012032CA3EFF01203E8
:100184002CA3EFF012032CA3EFF090000CE0540F1B
:0F019400C454F0FF90000BE054F0C4540F4FFF21
:0101A3002239
:1001F900E4900009F0A3F012030DC390000AE09403
:1002090064900009E064809480400F1201449000DA
:1002190008EFF0E4900009F0A3F0900008E0FF7EF9
:100229000012000390000AE004F070CE900009E08B
:0402390004F080C687
:1000C4000201F9E493A3F8E493A34003F68001F258
:1000D40008DFF48029E493A3F85407240CC8C3333D
:1000E400C4540F4420C8834004F456800146F6DF0C
:1000F400E4800B0102040810204080900374E47E25
:10010400019360BCA3FF543F30E509541FFEE49300
:10011400A360010ECF54C025E060A840B8E493A3C7
:10012400FAE493A3F8E493A3C8C582C8CAC583CAF2
:10013400F0A3C8C582C8CAC583CADFE9DEE780BEAA
:010378000084
:1001A400BC000BBE0029EF8DF084FFADF022E4CC3F
:1001B400F875F008EF2FFFEE33FEEC33FCEE9DEC08
:1001C400984005FCEE9DFE0FD5F0E9E4CEFD22ED4E
:1001D400F8F5F0EE8420D21CFEADF075F008EF2F98
:1001E400FFED33FD4007985006D5F0F222C398FD89
:0501F4000FD5F0EA2226
:00000001FF
