:030000000204886F
:0C048800787FE4F6D8FD75810702035769
:1004680000C000F900A400B000990092008200F8D2
:10047800008000900088008300C600A10086008EDE
:10038B00E025E02468F582E43404F583740193F5E9
:01039B0080E1
:10039C00E4FDFCC3ED9FEC9E5015E4FBFA0BBB0097
:0F03AC00010AEB64724A70F50DBD00010C80E48C
:0103BB00221F
:0E000300758921758DF4858D8BD2ABD2AF221D
:1003BC00758CDF758A99D28CD28E308DFDC28EC22F
:1003CC008DC28CD296758CEF758ACED28CC28E3043
:0B03DC008DFDC28EC28DC28CD2962215
:1003E700758CFD758AF7D28CD28E308DFDC28EC288
:1003F7008DC28CD296758CFD758AF7D28CC28E30E1
:0B0407008DFDC28EC28DC28CD29622E9
:10041200758CFD758AF7D28CD28E308DFDC28EC25C
:100422008DC28CD296758CF9758AE5D28CC28E30CB
:0B0432008DFDC28EC28DC28CD29622BE
:10043D00758CFE758A0CD28CD28E308DFDC28EC21B
:10044D008DC28CD296758CFE758A0CD28CC28E3074
:0B045D008DFDC28EC28DC28CD2962293
:10029600AE07EFF4FFAC05EDF4FD1203BCE4FBEE94
:1002A60030E00512041280031203E7EEC313FE0BBF
:1002B600EBB408EBE4FBEF30E00512041280031206
:1002C60003E7EFC313FF0BEBB408EBE4FBEC30E002
:1002D6000512041280031203E7ECC313FC0BEBB404
:1002E60008EBE4FBED30E00512041280031203E78D
:0C02F600EDC313FD0BEBB408EB02043D5C
:03001B00020011CF
:03001100B2963272
:10035700E4900000F0A3F0A3F0D29612000312007D
:100367001E900000EFF0F4600EE0FDFFA3E4F0A3A1
:10037700EFF07F55120296900001E0FEA3E0FF1216
:0403870001E180DA36
:10001E0090000474FFF075B0FE900003E5B0F0E0C0
:10002E0054F0F0900003E064F060597F057E0012FA
:10003E00039CE5B0F0E054F0F0900003E064F06053
:10004E00E2E5B0F0E02482602424C0601824E06071
:10005E000C24F0701E9000047401F08016900004C1
:10006E007402F0800E9000047403F0800690000479
:10007E007404F0900003E064F060BEE5B0F0E0546C
:10008E00F0F080EF75B0FD900003E5B0F0E054F0B5
:10009E00F0900003E064F060597F057E0012039C2F
:1000AE00E5B0F0E054F0F0900003E064F060E2E5BB
:1000BE00B0F0E02483602424C0601824E0600C2497
:1000CE00F0701E9000047405F08016900004740603
:1000DE00F0800E9000047407F080069000047408FF
:1000EE00F0900003E064F060BEE5B0F0E054F0F094
:1000FE0080EF75B0FB900003E5B0F0E054F0F090A7
:10010E000003E064F060597F057E0012039CE5B0A9
:10011E00F0E054F0F0900003E064F060E2E5B0F03F
:10012E00E02485602424C0601824E0600C24F07064
:10013E001E9000047409F08016900004740AF0807A
:10014E000E900004740BF08006900004740CF09076
:10015E000003E064F060BEE5B0F0E054F0F080EF34
:10016E0075B0F7900003E5B0F0E054F0F0900003A6
:10017E00E064F060587F057E0012039CE5B0F0E06D
:10018E0054F0F0900003E064F060E2E5B0F0E0249B
:10019E0089602424C0601824E0600C24F0701D9047
:1001AE000004740DF08015900004740EF0800D9014
:1001BE000004740FF08005E4900004F0900003E05A
:1001CE0064F060BFE5B0F0E054F0F080EF90000412
:0201DE00E0FF40
:0101E00022FC
:0401E100AB07AA06B8
:1001E5007C037DE8120302900003EFF07C037DE8B9
:1001F500AF03AE021203027E007F64CFCDCFCECC1B
:10020500CE120302A3EFF07C007D64AF03AE0212B1
:1002150003027E007F0ACFCDCFCECCCE120302A340
:10022500EFF0AE02AF037C007D0A120302A905D2EE
:10023500A4D2A5D2A6D2A7C2A7900003E025E024A8
:1002450068F582E43404F583740193F5807F017EBB
:100255000012039C7580FFD2A7C2A690000412036A
:100265008B7580FFD2A6C2A590000512038B758001
:10027500FFD2A5C2A4AF01EF25E02468F582E434DE
:1002850004F583740193F5807F0112039C7580FF4B
:010295002246
:10030200BC000BBE0029EF8DF084FFADF022E4CCDF
:10031200F875F008EF2FFFEE33FEEC33FCEE9DECA8
:10032200984005FCEE9DFE0FD5F0E9E4CEFD22EDEE
:10033200F8F5F0EE8420D21CFEADF075F008EF2F38
:10034200FFED33FD4007985006D5F0F222C398FD29
:050352000FD5F0EA22C6
:00000001FF
