:03000000020345B3
:0C034500787FE4F6D8FD75810702030202
:1003250000C000F900A400B000990092008200F816
:10033500008000900088008300C600A10086008E22
:1002D100E025E02425F582E43403F583740193F5E8
:0102E100809C
:1002E200E4FDFCC3ED9FEC9E5015E4FBFA0BBB0052
:0F02F200010AEB64724A70F50DBD00010C80E447
:0103010022D9
:0401C700AB07AA06D2
:1001CB007C037DE812027C900000EFF07C037DE85D
:1001DB00AF03AE0212027C7E007F64CFCDCFCECCBC
:1001EB00CE12027CA3EFF07C007D64AF03AE021253
:1001FB00027C7E007F0ACFCDCFCECCCE12027CA369
:10020B00EFF0AE02AF037C007D0A12027CA905D28F
:10021B00A4D2A5D2A6D2A7C2A7900000E025E024C5
:10022B0025F582E43403F583740193F5807F017E19
:10023B00001202E27580FFD2A7C2A6900001120243
:10024B00D17580FFD2A6C2A59000021202D1758093
:10025B00FFD2A5C2A4AF01EF25E02425F582E4343B
:10026B0003F583740193F5807F011202E27580FF21
:01027B002260
:1000030090000174FFF075B0FE900000E5B0F0E0E1
:1000130054F0F0900000E064F060597F057E001218
:1000230002E2E5B0F0E054F0F0900000E064F0602C
:10003300E2E5B0F0E02482602424C0601824E0608C
:100043000C24F0701E9000017401F08016900001E2
:100053007402F0800E9000017403F080069000019A
:100063007404F0900000E064F060BEE5B0F0E0548A
:10007300F0F080EF75B0FD900000E5B0F0E054F0D3
:10008300F0900000E064F060597F057E001202E208
:10009300E5B0F0E054F0F0900000E064F060E2E5D9
:1000A300B0F0E02483602424C0601824E0600C24B2
:1000B300F0701E9000017405F08016900001740624
:1000C300F0800E9000017407F08006900001740820
:1000D300F0900000E064F060BEE5B0F0E054F0F0B2
:1000E30080EF75B0FB900000E5B0F0E054F0F090C5
:1000F3000000E064F060597F057E001202E2E5B083
:10010300F0E054F0F0900000E064F060E2E5B0F05D
:10011300E02485602424C0601824E0600C24F0707F
:100123001E9000017409F08016900001740AF0809B
:100133000E900001740BF08006900001740CF09097
:100143000000E064F060BEE5B0F0E054F0F080EF52
:1001530075B0F7900000E5B0F0E054F0F0900000C7
:10016300E064F060597F057E001202E2E5B0F0E042
:1001730054F0F0900000E064F060E2E5B0F0E024B9
:1001830089602424C0601824E0600C24F0701E9061
:100193000001740DF08016900001740EF0800E9033
:1001A3000001740FF080069000017410F0900000BD
:1001B300E064F060BEE5B0F0E054F0F080EF900052
:0301C30001E0FF59
:0101C6002216
:10030200E4900004F0900003F0120003900003EF69
:10031200F0F46003E0A3F0900004E0FF7E0012011D
:03032200C780E6AB
:10027C00BC000BBE0029EF8DF084FFADF022E4CC66
:10028C00F875F008EF2FFFEE33FEEC33FCEE9DEC2F
:10029C00984005FCEE9DFE0FD5F0E9E4CEFD22ED75
:1002AC00F8F5F0EE8420D21CFEADF075F008EF2FBF
:1002BC00FFED33FD4007985006D5F0F222C398FDB0
:0502CC000FD5F0EA224D
:00000001FF
