:030000000202B049
:0C02B000787FE4F6D8FD75810702027724
:10000E002620202020202610201020802620302080
:10001E0030203910301030802620202020201C2047
:10002E0020802B20262020202B1026102B802620EF
:10003E00302030203910261026604010391026202E
:10004E003020302039102610268026202B102B1021
:10005E002B203010391026102B102B202B40402037
:10006E00201020102B10263030801820182026202B
:10007E002020204026202B20302030201C20202025
:10008E0020801C201C201C203020306039103010A5
:10009E0020202B1026102B10261026102B102B8014
:1000AE001820182026202020206026102B203020FB
:1000BE0030201C20202020802620301030103020B0
:1000CE00392026102B102B202B40401040102010D2
:1000DE0020102B102630308000301C1020401C10B9
:1000EE00181020101C1018401C2020201C20182036
:1000FE002080FF20301C10182015201C20202026C8
:10010E004020202B20262020203080FF20201C1075
:10011E001810202026202B2030202B4020201C10B1
:10012E001810202026202B2030202B4020301C1091
:10013E00182015201C202020264020202B20262091
:10014E002020308020301C1020101C102020262053
:10015E002B2030202B4020151F0520101C10202096
:10016E0026202B2030202B4020301C10182015204C
:10017E001C202020264020202B202620202030301E
:10018E0020301C1018401C20202026401360182000
:07019E00154013401880001A
:10021E00E4FDFCC3ED9FEC9E5015E4FBFA0BBB0016
:0F022E00010AEB64724A70F50DBD00010C80E40B
:01023D00229E
:10023E00E4FDFCC3ED9FEC9E5015E4FBFA0BBB00F6
:0F024E00010AEB64034A70F50DBD00010C80E45A
:01025D00227E
:0D02A30075890175A882758CDCE4F58A224E
:03000B0002025E90
:10025E00C0E0C083C082758CDC758A00900003E01C
:09026E0004F0D082D083D0E0320C
:1001A500E4900003F0EF75F0D9A4FF900001E5F0AD
:1001B500F0A3EFF0900001E475F00112028DFE74DA
:1001C5000E25F0F58274003EF583E493F9B4FF0B38
:1001D500C28C7F647E0012023E80D9E970012290B4
:1001E5000001E475F00112028DFE740E25F0F58212
:1001F50074003EF583E493900000F0D28CB286E95A
:10020500FF7E0012023E900003E0FF900000E0B583
:0902150007EBE4900003F0809B6C
:100277001202A3E4FF1201A57FE87E0312021E7F8C
:06028700011201A580ED4B
:10028D00A3F8E0C5F025F0F0E58215827002158324
:06029D00E0C838F0E82281
:00000001FF
