:0300000002017387
:0C017300787FE4F6D8FD7581070201BA20
:1002850000C000F900A400B000990092008200F8B7
:10029500008000900088008300C600A10086008EC3
:0402CF0041000000EA
:10025400E025E02485F582E43402F583740193F506
:010264008019
:10026500E4FDFCC3ED9FEC9E5015E4FBFA0BBB00CF
:0F027500010AEB64724A70F50DBD00010C80E4C4
:010284002257
:0400BE00AB07AA06DC
:1000C2007C037DE81201FF900005EFF07C037DE8E0
:1000D200AF03AE021201FF7E007F64CFCDCFCECC44
:1000E200CE1201FFA3EFF07C007D64AF03AE0212DB
:1000F20001FF7E007F0ACFCDCFCECCCE1201FFA36F
:10010200EFF0AE02AF037C007D0A1201FFA905D217
:10011200A4D2A5D2A6D2A7C2A7900005E025E024CA
:1001220085F582E43402F583740193F5807F017EC4
:10013200001202657580FFD2A7C2A69000061202C5
:10014200547580FFD2A6C2A5900007120254758092
:10015200FFD2A5C2A4AF01EF25E02485F582E434E5
:1001620002F583740193F5807F011202657580FFA9
:01017200226A
:0702C800D2A8D288D2AF22B8
:1002A500AD071FED600BE4FEEEC3940D50F20E801A
:0102B500F751
:0102B6002225
:1002B700D2B21202C8900000E0FF7E001200BE809A
:0102C700F442
:03000300020006F2
:10000600C0E0C083C082C0D075D000C002C003C0AB
:0700160004C005C006C0078D
:10001D00E4FCC2A87F0F1202A530B204D2A8807CE6
:10002D0020B2077F011202A580F6E4FBE4FA30B29C
:10003D00077F011202A580F620B2077F011202A5EB
:10004D0080F630B2107F011202A50CECC3941E4055
:10005D00F1D2A8804774012BF582E43400F583E0DA
:10006D00C313F0ECC39408400E74012BF582E434F5
:10007D0000F583E04480F07C000AEAB408B00BEB95
:10008D00B404A9900004E0F4FF900003E0FE6F605B
:0C009D0004D2A88007900000EEF0D2A86A
:1000A900D007D006D005D004D003D002D0D0D0825A
:0500B900D083D0E0320D
:10017F000202B7E493A3F8E493A34003F68001F2DD
:10018F0008DFF48029E493A3F85407240CC8C33381
:10019F00C4540F4420C8834004F456800146F6DF50
:1001AF00E4800B01020408102040809002CFE47E0F
:1001BF00019360BCA3FF543F30E509541FFEE49345
:1001CF00A360010ECF54C025E060A840B8E493A30C
:1001DF00FAE493A3F8E493A3C8C582C8CAC583CA37
:1001EF00F0A3C8C582C8CAC583CADFE9DEE780BEEF
:0102D300002A
:1001FF00BC000BBE0029EF8DF084FFADF022E4CCE4
:10020F00F875F008EF2FFFEE33FEEC33FCEE9DECAC
:10021F00984005FCEE9DFE0FD5F0E9E4CEFD22EDF2
:10022F00F8F5F0EE8420D21CFEADF075F008EF2F3C
:10023F00FFED33FD4007985006D5F0F222C398FD2D
:05024F000FD5F0EA22CA
:00000001FF
