:0300000002016397
:0C016300787FE4F6D8FD758120020003CF
:10006A00BABDCCABB5E7D7D300BBB6D3ADC4FA00A3
:10007A0048544D353220D1A7CFB0B0E52000C4FA9C
:0E008A00D7EEBAC3B5C4D1A1D4F1A3A1200012
:040098007F057E0062
:0A009C00EF1FAC0670011E4C601748
:1000A600E4900006F0900006E0C394FA50E80000E1
:0700B6000000E004F080EE01
:0100BD002220
:10013D00C2B5D2B6D2B400000000E580339200C241
:03014D00B4A20059
:01015000228C
:1001070012013D40FBC2B5C2B6C2B400008F8000E9
:0C011700000000D2B400000000C2B422BE
:1001230012013D40FBD2B5C2B6C2B48F80000000BD
:0A01330000D2B400000000C2B422A4
:1000BE00D2B77F341201071200987F301201071257
:1000CE0000987F0C1201071200987F011201077F22
:0600DE00057E0002009CFB
:100003007F0A7E0012009C1200BEE4FDFF1200E492
:10001300E4FEEE90006A93FF60061201230E80F265
:10002300E4FD7F011200E4E4FEEE90007393FF60B1
:10003300061201230E80F2E4FD7F021200E4E4FEC7
:10004300EE90007A93FF60061201230E80F2E4FD26
:100053007F031200E4E4FEEE90008893FF60061233
:0700630001230E80F280FE74
:10015100AD071FED600BE4FEEEC3940D50F20E806F
:01016100F7A6
:01016200227A
:1000E400EF70047F808016EFB401047F90800EEFE0
:1000F400B402047F888006EFB403027F98EF2DFFDB
:03010400020107EE
:00000001FF
