:0300000002007A81
:0C007A00787FE4F6D8FD758107020003D2
:10005A0000C000F900A400B000990092008200F8E4
:10006A00008000900088008300C600A10086008EF0
:10003A00E4FDFCC3ED9FEC9E5015E4FBFA0BBB00FC
:0F004A00010AEB64724A70F50DBD00010C80E4F1
:010059002284
:10000300C2A4C2A5C2A6C2A7E4900000F09000005B
:10001300E0FFC3941050F1EF25E0245AF582E43455
:1000230000F583740193F5807FE87E0312003A9014
:070033000000E004F080D69C
:00000001FF
